:020000040800F2
:1000000038040020AD010008B1090008B309000858
:10001000B5090008B7090008B90900080000000088
:10002000000000000000000000000000BB09000804
:10003000BD09000800000000BF090008C30900084E
:10004000C7010008C7010008C7010008C701000870
:10005000C7010008C7010008C7010008C701000860
:10006000C7010008C7010008C7010008C701000850
:10007000C7010008C7010008C7010008C701000840
:10008000C7010008C7010008C70100080000000000
:10009000000000000000000000000000C701000890
:1000A000C7010008C7010008C7010008C701000810
:1000B000C7010008C7010008C7010008C701000800
:1000C000C7010008C7010008C7010008C7010008F0
:1000D000C7010008C7010008C701000800000000B0
:1000E000C7010008C7010008C701000800000000A0
:1000F000000000000000000000000000C701000830
:1001000000000000C7010008C7010008C70100087F
:1001100000000000000000000000000000000000DF
:10012000C7010008C7010008C7010008C70100088F
:10013000C7010008000000000000000000000000EF
:10014000000000000000000000000000C7010008DF
:10015000C7010008C7010008C7010008C70100085F
:10016000C7010008C70100080000000000000000EF
:10017000000000000000000000000000000000007F
:1001800000000000C701000800000000000000009F
:10019000C7010008C7010008DFF80CD000F0D2FC4E
:1001A00000480047610900083804002006488047DD
:1001B00006480047FEE7FEE7FEE7FEE7FEE7FEE74C
:1001C000FEE7FEE7FEE7FEE7CD090008990100081B
:1001D000F648016841F001010160F44A002108324B
:1001E00011600268F24B1A400260031DF14A1A6066
:1001F000EE4BF14A84331A60EE4A103A1B1D1A6026
:10020000026822F480220260E8480C300160181D68
:1002100001607047E5490022891C0A700870704728
:1002200002460020510901290CD002290CD0DF49D7
:100230007431096802F01F02012393400B4200D081
:1002400001207047D949F4E7D8497031F1E718B572
:1002500000204FF4A04400903120FFF7E1FF009907
:10026000491C0091A14201D00028F5D03120FFF7B0
:10027000D7FF002800D0012018BDCC4A116821F01A
:10028000F80141EAC00010607047CC49086070472F
:10029000C649002270310A700A70012802D0042871
:1002A00001D1052008707047C5490860704741EAD0
:1002B00082115A0810B5C34B029C03EB0242114352
:1002C000014341EA0460B949091D086010BDBB49FA
:1002D00008667047800140EA0170B44910438431D8
:1002E00008607047B54988667047800140EA016040
:1002F000AE4940EA0270883108607047AF4908672C
:100300007047AE49C8647047A84B08331A68084361
:1003100022F0EC62104318607047A44B08331A684F
:10032000084322F078421043186070479F4A083211
:10033000116821F003010143116070479B480830A8
:10034000006800F00C007047984A0832116821F0EC
:10035000F001014311607047944A0832116821F49A
:10036000E051014311607047904A0832116821F44E
:10037000604141EAC0001060704770B58B4B083394
:100380001968914C11F00C0104D06610042903D0B7
:10039000082903D004601BE0066019E0834A121D9F
:1003A0001168C1F38055116801F03F0115B1B6FB2A
:1003B000F1F101E0B4FBF1F114681268C4F38814A0
:1003C0006143C2F30142521C5200B1FBF2F10160E1
:1003D00019680F2202EA11117C4A545C0168E1405D
:1003E00041601C68072505EA9424145D21FA04F491
:1003F00084601B6805EA5333D25CD140C16070BD94
:10040000C0F30121032908D1684B08331968704AE9
:1004100021F4F81102400A431A60644970310A68F5
:10042000C0F30B0002430A60704765494439086015
:10043000704763494039086070476049C1F85C0102
:1004400070475A4A8C32116821F4401101431160FF
:100450007047564A8C32116821F440010143116003
:100460007047524A8C321168401E21F01F0101432F
:10047000116070474D4A8C3211686FF0FF0321F410
:10048000F85103EB0020084310607047474A8C3254
:10049000116821F440310143116070474D49C1F8A2
:1004A000E0017047414A30320029116801D0014310
:1004B00000E08143116070473C4A343200291168E2
:1004C00001D0014300E0814311607047374A403258
:1004D0000029116801D0014300E081431160704799
:1004E000324A44320029116801D0014300E08143BF
:1004F000116070472D4A10320029116801D0014364
:1005000000E0814311607047284A143200291168C5
:1005100001D0014300E0814311607047234A20323B
:100520000029116801D0014300E081431160704748
:100530001E4A24320029116801D0014300E08143A2
:1005400011607047194A50320029116801D00143E7
:1005500000E0814311607047144A54320029116849
:1005600001D0014300E08143116070470F4A6032BF
:100570000029116801D0014300E0814311607047F8
:100580000A4A64320029116801D0014300E0814326
:1005900011607047054970310128086803D020F0C8
:1005A00008000860704740F00800FAE70038024091
:1005B000FFFFF6EA10300024003000200000474220
:1005C000800E47420000FFFF0024F40000000020DE
:1005D000FFFCFF0F001047420E4A0029117801D09E
:1005E000014300E08143117070470A486730016899
:1005F00041F08071016070470146064A0020521E9A
:1006000012680A4200D0012070470249491C087054
:10061000704700000D380240774910B5884206D176
:1006200001210846FFF766FF002101205BE07349C6
:10063000884206D101210220FFF75CFF0021022041
:1006400051E06F49884206D101210420FFF752FF93
:100650000021042047E06B49884206D1012108208F
:10066000FFF748FF002108203DE06749884206D196
:1006700001211020FFF73EFF0021102033E06349E5
:10068000884206D101212020FFF734FF00212020DD
:1006900029E05F49884206D101214020FFF72AFF67
:1006A000002140201FE05B49884206D101218020C3
:1006B000FFF720FF0021802015E05749884202D132
:1006C000012184150AE05549884202D101214415CF
:1006D00004E0534988420AD1012104152046FFF75E
:1006E00009FF00212046BDE81040FFF703BF10BD01
:1006F000F0B5002201274FF0030C0B6807FA02F552
:100700002B40AB422CD1066853000CFA03F4A643ED
:1007100006600E79D0F800E09E4046EA0E060660BC
:100720000E79012E01D0022E12D18668A643866072
:100730004E79D0F808E09E4046EA0E06866046688C
:10074000AE43466045688E799640B6B23543456003
:10075000C568A543C560CC799C40C3681C43C46090
:10076000521C102AC9D3F0BD4FF6FF710160002161
:10077000017141718171C171704708B541F48032D6
:100780000092C261C1610099C161C169C0690090F4
:1007900008BD0246002012690A4200D001207047BD
:1007A000006980B270470246002052690A4200D0B8
:1007B00001207047406980B27047018370474183D0
:1007C00070470AB1018370474183704741617047A8
:1007D00042694A40426170474B07DB0E9A40C908A4
:1007E00010B500EB8100016A0F249C40A143016217
:1007F000016A1143016210BD000002400004024082
:1008000000080240000C02400010024000140240A8
:1008100000180240001C0240002002400024024058
:1008200000280240234810B54168491C4160816896
:1008300011B18168491E8160AFF3008010BD10B511
:100840001C4C2078002821D10120FFF7E3FCFFF7A2
:10085000FEFC0028FBD0184801684FF47A70B1FB09
:10086000F0F0401EB0F1807F11D24FF0E0225061D5
:10087000124BF02083F8140D0020906107201061C6
:100880000F48B1FBF0F0E0600120207010BDFEE7E2
:1008900008480078002805D04FF0E020016941F0B9
:1008A0000201016170474FF0E020016921F002016F
:1008B0000161704710000020240000200FE000E0DC
:1008C000C0C62D001CB501210820FFF7EBFD4FF439
:1008D0007040009000208DF8060001218DF8041072
:1008E0008DF8070003208DF8050069461948FFF7C9
:1008F000FFFE1CBD1CB501210846FFF7D3FD0120FA
:10090000009000208DF806008DF804008DF8070097
:1009100003208DF8050069460F48FFF7E9FE1CBD6E
:100920000D480069C00702D00C48017809B10020C9
:100930007047012101700846704707480069C007E9
:1009400006D10648017819B10021017001207047D5
:1009500000207047000C02400000024020000020F0
:1009600000F034F8FFF76BFFFFF7ACFF0E494FF4D0
:10097000704008804FF4FA6000F00CF80A4C4FF415
:10098000FA75241F206880F470412160284600F029
:1009900001F8F7E7054908B50A6800920A68009B64
:1009A000D21A8242FAD308BD180C0240140000206B
:1009B0007047FEE7FEE7FEE7FEE7704770477047C7
:1009C000704710B5FFF72EFF10BD0000534810B55B
:1009D000016841F4700101605148016841F0010172
:1009E00001604F4A00210832116002684D4B1A40E5
:1009F0000260031D4C4A1A60026822F480220260E1
:100A000047480C30016000F039F844494FF000606D
:100A10008039086010BD70B5414E0022083630683C
:100A2000424B434910F00C0003D0042803D008289F
:100A300003D00B6018E03F4815E03948001D0468FA
:100A4000C4F38055046804F03F042DB9B3FBF4F2FD
:100A50000368C3F388135A430068C0F30140401C85
:100A60004000B2FBF0F008603068314AC0F3031078
:100A7000121D105C0A68C2400A6070BD0CB50022ED
:100A8000274900920192086840F4803008604FF4D2
:100A9000A043086800F4003001900098401C0090CA
:100AA000019810B900989842F3D10868800332D5B4
:100AB000012001901A484030026842F080520260E2
:100AC0001D48026842F4404202601548083002683E
:100AD000026002680260026842F480520260031FF2
:100AE000164A1A600A6842F080720A600A68920127
:100AF000FCD5134A40F202711160016821F0030134
:100B00000160016841F0020101600168C1F38101E7
:100B10000229FAD10CBD01920CBD000088ED00E065
:100B200000380240FFFFF6FE103000240024F400DD
:100B30002400002000127A00007000400864410880
:100B4000003C0240064C074D06E0E06840F001031F
:100B500094E8070098471034AC42F6D3FFF720FB27
:100B6000880B0008A80B000802E008C8121F08C183
:100B7000002AFAD170477047002001E001C1121F1E
:100B8000002AFBD170470000A80B000800000020DD
:100B900038000000680B0008E00B00083800002057
:100BA00000040000780B00080000000001020304AC
:100BB000010203040607080900000000000000000D
:100BC00000000000000000000000000000E1F5054A
:100BD00000000000000000000102030406070809ED
:040000050800019955
:00000001FF
