:020000040800F2
:1000000058050020C1010008CF2C0008D12C0008A1
:10001000D32C0008D52C0008D72C000800000000C5
:10002000000000000000000000000000D92C0008C3
:10003000DB2C000800000000DD2C0008E12C00088B
:10004000DB010008DB010008DB010008DB01000820
:10005000DB010008DB010008DB010008DB01000810
:10006000DB010008DB010008DB010008331E00088B
:10007000391E00083F1E0008451E00084B1E0008E0
:10008000511E0008571E0008DB010008DB010008B4
:10009000DB010008DB010008DB010008DB010008D0
:1000A000DB010008DB010008DB010008DB010008C0
:1000B000DB010008DB010008DB010008DB010008B0
:1000C000DB010008DB010008DB010008DB010008A0
:1000D000DB010008DB010008DB010008DB01000890
:1000E000DB010008DB010008DB010008DB01000880
:1000F000DB010008DB010008DB0100085D1E0008D1
:10010000DB010008DB010008DB010008DB0100085F
:10011000DB010008DB010008DB010008DB0100084F
:10012000631E0008671E00086D1E0008731E00088D
:10013000791E0008DB010008DB010008DB01000874
:10014000DB010008DB010008DB010008DB0100081F
:100150007F1E0008851E00088B1E0008DB010008BA
:10016000DB010008DB010008DB010008DB010008FF
:10017000DB010008DB010008DB010008DB010008EF
:10018000DB010008DB010008DB010008DB010008DF
:10019000DB010008DB010008DB010008DB010008CF
:1001A000DB010008DB010008DB010008DFF80CD0F0
:1001B00002F07CFE004800472D2B00085805002067
:1001C0000648804706480047FEE7FEE7FEE7FEE7F1
:1001D000FEE7FEE7FEE7FEE7FEE7FEE7A72D0008E5
:1001E000AD0100082849084328490860704730B528
:1001F0000F23C27801780125FAB1244A126801F16F
:10020000E02102F4E062C2F5E062C2F30722C2F12B
:100210000404D3404278A24084781C401443220155
:1002200081F80024007800F01F018D404009800013
:1002300000F1E020C0F8005130BD01F01F00854002
:100240004809800000F1E020C0F8805130BD104A1C
:10025000114001430D48001F016070470B4A121DF9
:100260000029116801D0014300E08143116070470B
:100270004FF0E0210428086903D020F00400086151
:10028000704740F00400FAE70000FA050CED00E0CA
:1002900080FFFF1FF948016841F001010160F74A42
:1002A0000021083211600268F54B1A400260031DFC
:1002B000F44A1A60F14BF44A84331A60F14A103A56
:1002C0001B1D1A60026822F480220260EB480C3089
:1002D0000160181D01607047E8490022891C0A70FE
:1002E0000870704702460020510901290CD00229EC
:1002F0000CD0E2497431096802F01F0201239340D7
:100300000B4200D001207047DC49F4E7DB49703133
:10031000F1E718B500204FF4A04400903120FFF71A
:10032000E1FF0099491C0091A14201D00028F5D0BD
:100330003120FFF7D7FF002800D0012018BDCF4A99
:10034000116821F0F80141EAC00010607047CF4900
:1003500008607047C949002270310A700A7001288C
:1003600002D0042801D1052008707047C8490860F0
:10037000704741EA82115A0810B5C64B029C03EB44
:1003800002421143014341EA0460BC49091D08606F
:1003900010BDBE4908667047800140EA0160B74958
:1003A00040EA0270843108607047B8498866704737
:1003B000800140EA0160B14940EA0270883108607A
:1003C0007047B24908677047B049C8647047AB4B83
:1003D00008331A68084322F0EC6210431860704733
:1003E000A64B08331A68084322F07842104318607D
:1003F0007047A24A0832116821F0030101431160DD
:1004000070479E480830006800F00C0070479B4A17
:100410000832116821F0F001014311607047974ADA
:100420000832116821F4E051014311607047934A8A
:100430000832116821F4604141EAC0001060704741
:1004400070B58E4B08331968934C11F00C0104D031
:100450006610042903D0082903D004601BE006605D
:1004600019E0864A121D1168C1F38055116801F028
:100470003F0115B1B6FBF1F101E0B4FBF1F11468F5
:100480001268C4F388146143C2F30142521C520043
:10049000B1FBF2F1016019680F2202EA11117F4AE3
:1004A000545C0168E14041601C68072505EA94241A
:1004B000145D21FA04F484601B6805EA5333D25CAE
:1004C000D140C16070BDC0F30121032908D16B4B3D
:1004D00008331968724A21F4F81102400A431A607D
:1004E000664970310A68C0F30B0002430A60704726
:1004F000674944390860704765494039086070476A
:100500006249C1F85C0170475C4A8C32116821F481
:100510004011014311607047584A8C32116821F430
:100520004001014311607047544A8C321168401EEB
:1005300021F01F01014311607047504A8C3211684D
:100540006FF0FF0321F4F85103EB00200843106023
:1005500070474A4A8C32116821F4403101431160DE
:1005600070475049C1F8E0017047444A30320029D1
:10057000116801D0014300E08143116070473F4A98
:1005800034320029116801D0014300E08143116039
:1005900070473A4A38320029116801D0014300E01F
:1005A000814311607047354A40320029116801D0FB
:1005B000014300E0814311607047304A4432002912
:1005C000116801D0014300E08143116070472B4A5C
:1005D00010320029116801D0014300E0814311600D
:1005E0007047264A14320029116801D0014300E007
:1005F000814311607047214A18320029116801D0E7
:10060000014300E08143116070471C4A20320029F9
:10061000116801D0014300E0814311607047174A1F
:1006200024320029116801D0014300E081431160A8
:100630007047124A50320029116801D0014300E08E
:100640008143116070470D4A54320029116801D06E
:10065000014300E0814311607047084A5832002985
:10066000116801D0014300E0814311607047034AE3
:1006700060320029116817D0014316E000380240AB
:10068000FFFFF6EA1030002400300020000047424F
:10069000800E47420000FFFF0024F400000000200D
:1006A000FFFCFF0F00104742814311607047194A59
:1006B0000029116801D0014300E0814311607047B7
:1006C00014490C310128086803D020F008000860A4
:1006D000704740F00800FAE70E4A573A00291178AF
:1006E00001D0014300E08143117070470948103088
:1006F000016841F08071016070470146054A0020A1
:10070000583A12680A4200D0012070470149563910
:100710000870704764380240774910B5884206D1A6
:1007200001210846FFF753FF002101205BE07349D8
:10073000884206D101210220FFF749FF0021022053
:1007400051E06F49884206D101210420FFF73FFFA5
:100750000021042047E06B49884206D1012108208E
:10076000FFF735FF002108203DE06749884206D1A8
:1007700001211020FFF72BFF0021102033E06349F7
:10078000884206D101212020FFF721FF00212020EF
:1007900029E05F49884206D101214020FFF717FF79
:1007A000002140201FE05B49884206D101218020C2
:1007B000FFF70DFF0021802015E05749884202D144
:1007C000012184150AE05549884202D101214415CE
:1007D00004E0534988420AD1012104152046FFF75D
:1007E000F6FE00212046BDE81040FFF7F0BE10BD28
:1007F000F0B5002201274FF0030C0B6807FA02F551
:100800002B40AB422CD1066853000CFA03F4A643EC
:1008100006600E79D0F800E09E4046EA0E060660BB
:100820000E79012E01D0022E12D18668A643866071
:100830004E79D0F808E09E4046EA0E06866046688B
:10084000AE43466045688E799640B6B23543456002
:10085000C568A543C560CC799C40C3681C43C4608F
:10086000521C102AC9D3F0BD4FF6FF710160002160
:10087000017141718171C171704708B541F48032D5
:100880000092C261C1610099C161C169C0690090F3
:1008900008BD0246002012690A4200D001207047BC
:1008A000006980B270470246002052690A4200D0B7
:1008B00001207047406980B27047018370474183CF
:1008C00070470AB1018370474183704741617047A7
:1008D00042694A40426170474B07DB0E9A40C908A3
:1008E00010B500EB8100016A0F249C40A143016216
:1008F000016A1143016210BD000002400004024081
:1009000000080240000C02400010024000140240A7
:1009100000180240001C0240002002400024024057
:10092000002802402DE9F043016821F00101016037
:100930000021016041608160C1600161212141614C
:10094000B849B84A3D251039904202D18D60BDE8C2
:10095000F083B44A4FF474661832904201D18E602D
:10096000F5E7B04A4FF474173032904201D18F60EE
:10097000EDE7AC4A4FF0746C4832904202D1C1F8B6
:1009800008C0E4E7A74BA84A6033984201D1CA6087
:10099000DDE7A44CA54B7834A04201D1CB60D6E76B
:1009A000DFF88082A24C08F19008404501D1CC606C
:1009B000CDE7DFF870824FF03D5908F1A8084045B7
:1009C00002D1C1F80C90C2E79A49DFF86882083971
:1009D000404501D10D60BAE7964D1835A84201D1C6
:1009E0000E60B4E7934D3035A84201D10F60AEE7F9
:1009F000904D4835A84202D1C1F800C0A7E78D4DFF
:100A00008C496035091FA84201D10A609FE7894AD5
:100A10007832904201D10B6099E7864A9032904239
:100A200001D10C6093E7834AA83290428FD1C1F87C
:100A300000908CE730B503687F4ACC6813400A68A1
:100A40002243D1E905452C432243CC6922430C6A59
:100A500022434C6A22438C6A22434C6B22438C6BA8
:100A600022431A430260426922F00703D1E90B24B2
:100A700022431A4342610A6942604A688260896877
:100A8000C16030BD0021016041608160C1600161D1
:100A900041618161C161016241628162C162016340
:100AA0004163816370470029016802D041F0010170
:100AB00001E021F00101016070470029016802D0C6
:100AC00041F4004101E021F4004101607047002938
:100AD000016802D041F0200101E021F02001016015
:100AE000704741607047406880B27047002A0268D2
:100AF00002D042F4002201E022F4002202600161EF
:100B000070470029016802D041F4802101E021F4FE
:100B10008021016070470AB101617047C160704770
:100B2000014600200968090300D5012070470146ED
:100B300000200968C90700D001207047406900F013
:100B40003800704702463B4B00209A4202D2354A99
:100B5000103A01E0374A103A8B0001D5526800E0A4
:100B60001268364B1A400A4200D001207047314AC1
:100B7000904202D22B48103801E02E4810382F4AFC
:100B80008B0001EA020101D5C160704781607047A6
:100B90000B0607D5436912B143F0800301E023F04F
:100BA00080034361802908D0002A026801F01E01F9
:100BB00001D00A4300E08A430260704730B51D4A05
:100BC0000024904202D2174A103A01E0194A103A22
:100BD0001B4B194205D01E2303EAD12503682B4085
:100BE00002E0406900F08003880001D5506800E011
:100BF0001068124A1040084201D003B10124204677
:100C000030BD0C4A904202D20648103801E0094833
:100C100010380A4A8B0001EA020101D5C160704711
:100C200081607047106002403D000020400F0020AE
:100C300000003D20106402403F801CF07D0F7D0FBE
:100C40003C0F3C0FC14910B5884202D101218414E8
:100C500024E0BF49884202D10121041404E0BD49C7
:100C600088420AD10121C4132046FFF7CEFC20465A
:100C7000BDE810400021FFF7C8BCB749884202D147
:100C8000012144140AE0B549884202D101210C0532
:100C900004E0B34988420AD101214C052046FFF700
:100CA000BEFC2046BDE810400021FFF7B8BC10BDD7
:100CB00030B502884C8802F441530A88CD8822431B
:100CC0008C882C4322430C8922434C8922438C89F3
:100CD0002243CC8922431A430280828B22F4006291
:100CE0008283098A018230BDF0B502220023858B00
:100CF00001244FF24006354085830284868B8D683F
:100D0000022D3DD08A8802B10224964A13681B0244
:100D100003D5136823F400031360924A7C321368EE
:100D20001268C3F388138F4FC2F302723F1F3D68EE
:100D30003F6805F03F057F0201D58B4F00E08B4FE8
:100D4000B7FBF5F55D43B5FBF2F2CB88B3F5007F59
:100D50002BD06301B2FBF3F202EB82028B685200EC
:100D6000B2FBF3F2521D92B20A23B2FBF3F202F08D
:100D70000103D21A4FF6FF74C2F34F0204EA0323B1
:100D8000941EFE2C01D302220023CC881A43144364
:100D900004840A884B881A438B8889890B431A4339
:100DA000324342F400618183F0BD120AD4E700218E
:100DB000018041808180C180018141818181C18127
:100DC0000721018270470021018041808180C1801C
:100DD00002228260818170470029018802D041F09F
:100DE000400101E021F04001018070470029818B22
:100DF00002D041F4806101E021F480618183704779
:100E0000028822F40062028002880A43028070474E
:100E1000B1F5804F018803D021F4804101807047F3
:100E200041F48041FAE7A1F57E420188FF3A02D001
:100E300041F4807101E021F4807101807047002944
:100E4000818802D041F0040101E021F00401818099
:100E500070470029818802D041F0100101E021F0A3
:100E600010018180704730B5828B00234FF240041F
:100E70002240828302220284848B0A884FF4807588
:100E8000B2F5007F00D002B92B464A888D88898947
:100E90002A4319430A43224342F40061818330BD4F
:100EA00080897047818170470029018802D041F410
:100EB000005101E021F4005101807047018841F4A4
:100EC000805101807047012901D0008B7047808AD2
:100ED0007047008A7047002A828801D00A4300E0E8
:100EE0008A4382807047090901238B40002A828847
:100EF00099B201D00A4300E08A43828070470246DB
:100F0000002012890A4200D001207047C9430181A4
:100F1000704730B501F00F030125024605FA03F4CE
:100F20000020A3B2090905FA01F49188A4B212893C
:100F300021401A4202D0002900D0012030BD01F02A
:100F40000F0201219140C9430181704700300140E7
:100F500000380040003C0040003401400050014097
:100F6000005401400838024000127A000024F400C6
:100F7000234810B54168491C4160816811B18168FE
:100F8000491E8160AFF3008010BD10B51C4C207865
:100F9000002821D10120FFF79FF9FFF7BAF90028B7
:100FA000FBD0184801684FF47A70B1FBF0F0401E96
:100FB000B0F1807F11D24FF0E0225061124BF0204F
:100FC00083F8140D00209061072010610F48B1FBD9
:100FD000F0F0E0600120207010BDFEE708480078C6
:100FE000002805D04FF0E020016941F002010161C5
:100FF00070474FF0E020016921F002010161704764
:1010000010000020F00000200FE000E0C0C62D001E
:101010001CB501214020FFF7A8FA4FF4C040009012
:1010200000208DF8060001218DF804108DF80700CE
:1010300003208DF8050069461948FFF7D9FB1CBD50
:101040001CB501210846FFF790FA0120009000200E
:101050008DF806008DF804008DF8070003208DF848
:10106000050069460F48FFF7C3FB1CBD0D4800692A
:10107000C00702D00C48017809B100207047012157
:1010800001700846704707480069C00706D1064846
:10109000017819B1002101700120704700207047CC
:1010A000001802400000024020000020A34908442C
:1010B000C0F38F2070472DE9F04F9A46DDE909B85B
:1010C00089460346FFF7F2FFC5B200204FF0030E3A
:1010D0000121814011EA090F28D0994E36F81540B8
:1010E0000C4326F81540DF6844000EFA04F6B743B7
:1010F0000BFA04FC47EA0C07DF601F6802FA04FCE5
:10110000B74347EA0C071F60012A01D0022A0DD11C
:101110005F6889B28F430AFA00F189B20F435F60BA
:10112000996808FA04F4B14321439960401CC0B2A5
:101130001028CDD3BDE8F08F00B5FFF7B7FF012130
:101140008140804802681143016000BDFCB516462D
:10115000DDE907C50C00074608D0FFF7EDFFCDE934
:1011600000C5324621463846FFF7A5FFFCBD2DE9F4
:10117000FC4F9946DDE90BB792460D00064622D09A
:10118000FFF7DAFF002201214FF00F0C01FA02F005
:1011900028420DD0D00806EB8003186A5407E40EED
:1011A0000CFA04F820EA080007FA04F42043186255
:1011B000521C102AEAD3CDE9009B5346022229464D
:1011C0003046FFF778FFBDE8FC8FF0B50E460546C8
:1011D000FFF76CFF00225A49C4B24FF0010C0327FD
:1011E0000CFA02F333420CD028684FEA420E07FA99
:1011F0000EFE40EA0E00286031F81400984321F8F2
:101200001400521CD2B2102AEAD3F0BDF0B500226D
:101210000125032605FA02F30B4205D004685700A6
:1012200006FA07F39C430460521CD2B2102AF1D391
:10123000F0BDF0B500220127032607FA02F33C4671
:101240000B4208D00568530006FA03FC25EA0C059A
:101250009C4025430560521CD2B2102AEDD3F0BD4C
:10126000F0B500220125032605FA02F30B4205D052
:101270000468570006FA07F31C430460521CD2B2FC
:10128000102AF1D3F0BDF0B5002201260324022775
:1012900006FA02F30B4209D00568530004FA03FC76
:1012A00025EA0C0507FA03F31D430560521CD2B270
:1012B000102AEDD3F0BDF0B500230127032507FA6E
:1012C00003F40C4209D0C6685C0005FA04FC26EA67
:1012D0000C0602FA04F42643C6605B1CDBB2102B3A
:1012E000EDD3F0BD41F48032C261C161C261C16918
:1012F000C0697047002102E0491C89B240080128FA
:10130000FAD80846704700B5FFF7D0FE01218140AA
:101310000C4802688A43026000BD00B5FFF7C6FEB4
:10132000074931F8100000BD00B5FFF7BFFE0449C2
:1013300031F81000C04380B200BD00000000FEBFC5
:1013400004010020303802400288520601D40020F7
:10135000704702899207FCD002891206F9D4818174
:1013600001898907FCD001890906F9D48089C0B2B6
:10137000704770B505464FF40051FE48FFF79FFADD
:10138000FD4C04212046FFF79AFA2946FB48FFF757
:10139000DBFF2046BDE870400421FFF78EBA70B530
:1013A00005464FF40051F348FFF787FAF24C042149
:1013B0002046FFF784FA2946F048FFF7C5FF20468C
:1013C000BDE870400421FFF778BA2DE9F0410746E7
:1013D0001C4615460E462A20FFF7CBFF380AFFF7BA
:1013E000DEFFF8B2FFF7DBFF280AFFF7D8FFE8B20D
:1013F000FFF7D5FF2B20FFF7BCFF300AFFF7CFFF29
:10140000F0B2FFF7CCFF200AFFF7C9FFE0B2BDE85A
:10141000F041C4E72DE9F0411D4614460E4607464B
:10142000DDF81880FFF7D1FF2C20FFF7A2FFE41BA7
:10143000A81B401C641CD04F444304213846FFF7CE
:101440003EFA4FF40051CB48FFF737FACB4E01215B
:10145000304601F0FEF84FF48035AC4201D3681EEF
:1014600000E0204682B24146304600F010FE304691
:1014700000F040FE0028FAD1AC420AD3641CA2B2AC
:101480004146304600F003FE304600F033FE0028AF
:10149000FAD104213846FFF710FA3046BDE8F04192
:1014A000002101F0D6B808B580B20090B448002100
:1014B00043880088401E82B20846FFF7ABFF08BD94
:1014C00001B5009801E0401E00900028FBD108BD46
:1014D00070B5A84D4FF4805421462846FFF7EFF928
:1014E00044F620663046FFF7EBFF21462846FFF71B
:1014F000E4F93046FFF7E4FF0120FFF73AFF4CF232
:101500005030FFF7DDFFCB20FFF733FF3920FFF727
:1015100046FF2C20FFF743FF0020FFF740FF342059
:10152000FFF73DFF0220FFF73AFFCF20FFF721FF33
:101530000020FFF734FFC120FFF731FF3020FFF715
:101540002EFFE820FFF715FF8520FFF728FF00207A
:10155000FFF725FF7820FFF722FFEA20FFF709FFBA
:101560000020FFF71CFF0020FFF719FFED20FFF719
:1015700000FF6420FFF713FF0320FFF710FF122086
:10158000FFF70DFF8120FFF70AFFF720FFF7F1FEBD
:101590002020FFF704FFC020FFF7EBFE2320FFF71A
:1015A000FEFEC120FFF7E5FE1020FFF7F8FEC52084
:1015B000FFF7DFFE3E20FFF7F2FE2820FFF7EFFEE9
:1015C000C720FFF7D6FE8620FFF7E9FE3620FFF79B
:1015D000D0FE4820FFF7E3FE3A20FFF7CAFE552071
:1015E000FFF7DDFEB120FFF7C4FE0020FFF7D7FEB6
:1015F0001820FFF7D4FEB620FFF7BBFE0820FFF748
:10160000CEFE8220FFF7CBFE2720FFF7C8FEF22098
:10161000FFF7AFFE0020FFF7C2FE2A20FFF7A9FE6A
:101620000020FFF7BCFE0020FFF7B9FE0020FFF707
:10163000B6FEEF20FFF7B3FE2B20FFF79AFE002047
:10164000FFF7ADFE0020FFF7AAFE0120FFF7A7FE7F
:101650003F20FFF7A4FE2620FFF78BFE0120FFF7B7
:101660009EFEE020FFF785FE0F20FFF798FE312059
:10167000FFF795FE2B20FFF792FE0C20FFF78FFE61
:101680000E20FFF78CFE0820FFF789FE4E20FFF7A3
:1016900086FEF120FFF783FE3720FFF780FE07204C
:1016A000FFF77DFE1020FFF77AFE0320FFF777FE9D
:1016B0000E20FFF774FE0920FFF771FE0020FFF7F0
:1016C0006EFEE120FFF755FE0020FFF768FE0E20BA
:1016D000FFF765FE1420FFF762FE0320FFF75FFEB1
:1016E0001120FFF75CFE0720FFF759FE3120FFF7BE
:1016F00056FEC120FFF753FE4820FFF750FE08209A
:10170000FFF74DFE0F20FFF74AFE0C20FFF747FEC4
:101710003120FFF744FE3620FFF741FE0F20FFF790
:101720003EFE1120FFF725FE1648FFF7C9FE2920CF
:10173000FFF71FFEBDE870402C201AE62DE9FC41A2
:10174000012500240B4E23462A4669033046CDE985
:101750000045FFF7FBFC084F002301220421384617
:10176000CDE90045FFF7F2FC0023012211033046CA
:101770000AE00000000C0240000802400050014056
:101780002600002040420F00CDE90054FFF7DEFCA8
:1017900004213846FFF791F8FE4E0021304600F054
:1017A00046FE304600F09BFBFFF792FEFA48F02120
:1017B00044800480001D01804FF4A07141800571B8
:1017C000BDE8FC414FF6FF706DE62920D1E52820E9
:1017D000CFE510B514460B460246FFF7F6FD2C2068
:1017E000FFF7C7FDC4F30720FFF7D9FDE0B2BDE85E
:1017F0001040D4E52DE9F04104463620FFF7B9FD4D
:10180000E54DF0272D1D4FF4A07634B1012C06D004
:10181000022C0BD0032C0BD00DE0582000E08820C8
:10182000FFF7BDFD2F806E80012007E0282000E03B
:10183000E820FFF7B4FD2E806F8000202871BDE8FE
:10184000F0812DE9F84F1D469146DDE90AA3D24A01
:10185000108051802C782044141D2488A04204D983
:101860006878084450800020108098B200906B780F
:1018700090465188B8F800005A1893B22A7802446A
:1018800092B2FFF7C7FD00261CE0A9F1200111FB71
:1018900000606A68002432F810700FE007FA04F064
:1018A00000040AD5B8F80210B8F80000314420440A
:1018B00089B280B25246FFF78CFF641C2878A042A0
:1018C000ECD8761C6878B042DFD82978B8F80020C8
:1018D0001144A8F80010BDE8F88F2DE9FC47AE4D83
:1018E000DDE90A9828801F461446064669800BE009
:1018F0000A2A0ED00D2A15D0CDE900983B466988FA
:101900002888641CFFF79DFF2278002AF0D1BDE8EB
:10191000FC8768887978401C0844688060780D28C6
:1019200002D02E80641CEFE700202880641CF9E7B9
:1019300030B54D7800241D8002E00B7823449CB222
:1019400010F8013B002BF8D1148030BD2DE9FC5F6D
:101950009046914A0C46121D054611881F46481EA6
:10196000A94200D885B2414501D81FFA80F85188B4
:10197000481EA14200D884B2B94200D887B245457A
:1019800002D9284645468046BC4202D920463C46FC
:101990000746A8EB050000B25FEA000AA7EB0400C7
:1019A0000FFA80F908D0B9F1000F05D04FF0FF30E1
:1019B00045450CD201210BE00C983B4680B20090CB
:1019C000424621462846FFF725FDBDE8FC9F01461B
:1019D0000191BC4200D2012000905046CA4501DC72
:1019E000C9F1000000EBD070401006B2CAF1000B44
:1019F000214628460C9AFFF7ECFE454501D1BC4232
:101A0000E3D030465E4505DDA0EB09010EB2019939
:101A100029448DB24845EBDA06EB0A0006B200987D
:101A2000204484B2E4E72DE9F8431D46089C16469D
:101A30000F4680460B460094FFF788FF42462B4630
:101A4000394610460094FFF781FF32462B4639464F
:101A500010460094FFF77AFF2B463246194640465F
:101A60000094FFF773FFBDE8F88338B59042049DFA
:101A700002D9044610462246994202D90C4619461C
:101A80002346ACB20094FFF7C5FCBDE83840042102
:101A90004248FEF712BF2DE9FF4F0746C2F1010091
:101AA00014460FFA80F8C2EBC43040000FFA80F9F8
:101AB00083B00E46081981B24FF0010A0025B8B272
:101AC000069AFFF786FE301B81B2B8B2069AFFF77E
:101AD00080FE3819B1B280B2069AFFF77AFEB1B231
:101AE000381B56E0B8F1000F09DB09F102000FFACC
:101AF00080F9641E08EB090024B20FFA80F80AF19D
:101B000002000FFA80FA6D1C08EB0A002DB20FFAE2
:101B100080F87819019006EB040B1FFA8BF180B264
:101B2000069AFFF756FE781B00901FFA8BF180B2E1
:101B3000069AFFF74EFE0198A6EB040B1FFA8BF1F5
:101B400080B2069AFFF745FE00981FFA8BF180B22B
:101B5000069AFFF73EFE3819019006EB050B1FFAB7
:101B60008BF180B2069AFFF734FE381B00901FFA03
:101B70008BF180B2069AFFF72CFE0198A6EB050BBD
:101B80001FFA8BF180B2069AFFF723FE1FFA8BF142
:101B9000009805E0005001402200002000080240AB
:101BA00080B2069AFFF715FEA5429BDB07B0BDE8A1
:101BB000F08F2DE9FE4F0746C2F1010014460FFADF
:101BC00080F8C2EBC43040000FFA80FA0E460819C4
:101BD00081B299464FF0010B0025B8B21A46FFF7C3
:101BE000F8FD301B81B2B8B24A46FFF7F2FD381952
:101BF0000290B1B280B24A46FFF7EBFD381B01906C
:101C0000B1B280B24A46FFF7E4FD0298B3B2CDF814
:101C1000009082B2B1B240E0B8F1000F09DB0AF1E6
:101C200002000FFA80FA641E08EB0A0024B20FFAD1
:101C300080F80BF102000FFA80FB6D1C08EB0B0023
:101C40002DB20FFA80F8781982B20290781BCDE994
:101C5000009031198BB289B280B2FFF777FE0198FC
:101C6000311B82B202988BB2CDF8009089B280B25B
:101C7000FFF76CFE381B82B202903819CDE9009054
:101C800071198BB289B280B2FFF760FE711B0298A6
:101C90008BB2CDF8009082B289B2019880B2FFF782
:101CA00055FEA542B8DBBDE8FE8F0000784A10B5AE
:101CB0001823904202D2774A774C03E0744A744C5E
:101CC000083A64422044B0FBF3F0042801D3001F1B
:101CD000121D724B01F03D01185C8140116010BD76
:101CE0003D21E3E76A491822884203D269496A4BD9
:101CF000083903E06649664B10395B421844B0FB73
:101D0000F2F0042801D3001F091D0968634A105C22
:101D1000C14001F03D00704738B504463D21FFF752
:101D2000C5FF5E4A5A4B1820121D01219C4207D262
:101D3000594B8DF801102344B3FBF0F0125C08E01E
:101D4000534B8DF801105B422344B3FBF0F0024487
:101D5000127A8DF800208DF803108DF80200684685
:101D6000FEF745FA206840F01E002060606940F0F0
:101D70008000606138BD10B504463D21FFF796FF35
:101D80004648434A1821001D944201D2424A01E0CC
:101D90003F4A52422244B2FBF1F14056012100F089
:101DA0001F0291404009800000F1E020C0F880113E
:101DB000206820F01E002060606900F080006061F3
:101DC00010BD7047704770477047704770B5054643
:101DD0003D21FFF787FF84B23D212846FFF766FFCC
:101DE000A00605D52868C00602D52846FFF7E9FFFA
:101DF000E00605D52868000702D52846FFF7E2FF70
:101E0000200705D52868400702D52846FFF7DBFFE5
:101E1000600705D52868800702D52846FFF7D4FF5C
:101E2000E00705D06869000602D52846FFF7CDFF18
:101E300070BD18480830C9E716482030C6E7154875
:101E40003830C3E713485030C0E712486830BDE768
:101E500010488030BAE70F489830B7E70D48B030E7
:101E6000B4E70B48B2E70A481830AFE7084830300B
:101E7000ACE707484830A9E705486030A6E70448C2
:101E80007830A3E702489030A0E70148A8309DE7EA
:101E90001064024008600240F09FFDBF76300008E9
:101EA000AF4A0146904200D1AE48AF4A914201D1BB
:101EB000AC481830AD4A914201D1AA483030AC4A02
:101EC000914201D1A7484830AA4A914201D1A54880
:101ED0006030A94A914201D1A2487830704710B5CC
:101EE000FFF7DEFFA54AA649436893420B6802D379
:101EF00043F4800301E043F400130B60C068904298
:101F0000086802D340F4800001E040F4001008604B
:101F10009C4900204861C861086248628862C862C2
:101F200008634863886310BD2DE9F0411F461446DD
:101F30000D468046069EFFF7B3FF80E8F00040465E
:101F4000BDE8F041CBE710B5FFF7AAFF04464068B3
:101F5000FEF7E8FCE068BDE81040FEF7E3BC2DE9C1
:101F6000F0479A4617460D460646FFF799FF044686
:101F7000C068406818BB6068406800BB55EA07004D
:101F80001DD0DFF800824FF00009A4F81490C8F8C3
:101F90002090C8F810A006F10C01C8F81C90C8F8F1
:101FA00004102168C8F80010402140464FF4806AB0
:101FB000C8F80C1035B18560C8F818A007E00020FB
:101FC000BDE8F08704F110018160C8F818903D2148
:101FD0006068FFF76BFE6B496068FEF72BFDA16838
:101FE000C8F8001040464946C8F80C901FB18760F9
:101FF000C8F818A004E004F110028260C8F81810B4
:102000003D21E068FFF752FE5E49E068FEF712FDF1
:10201000E068016841F0010101606068016841F019
:1020200001010160B08840F00300B0800120C7E7E3
:102030002DE9F04116460F460546FFF731FF0446ED
:102040004068406810B10020BDE8F0814D4827612C
:1020500005F10C0106614160002181612268026086
:1020600040220162C260C1613D216068FFF71EFE2F
:1020700044496068FEF7DEFC6068016841F00101D8
:102080000160A88840F00200A8800120DCE72DE96B
:10209000F04116460F460546FFF702FF044640682A
:1020A000406808B10020CFE73648A78205F10C014F
:1020B0000661416004F114018160002181612168A1
:1020C00001604021C160C90101628910C1613D21E7
:1020D0006068FFF7EBFD2B496068FEF7ABFC6068BA
:1020E000016841F001010160A88840F00200A88069
:1020F0000120A9E710B50446FFF7D2FEC168496880
:1021000041B94068406828B92089800702D02089F9
:10211000000601D5012010BD002010BD10B5FFF74D
:10212000BFFE406810BD10B5FFF7BAFEC06810BD15
:1021300010B5FFF7B5FE04464068FFF7EDFDE06817
:10214000BDE81040FFF7E8BD10B5FFF7A9FE044653
:102150004068FFF710FEE068BDE81040FFF70BBED7
:10216000003001403C00002000380040003C0040AE
:10217000003401400050014000540140106402400E
:10218000303802401C01002070471CB530B10328D4
:1021900003D10521FE48FFF7F7FF1CBD05210320F1
:1021A000CDE9000100231A464FF4E041F948FEF75B
:1021B000DEFF1CBD7CB50525F74E032440B1012888
:1021C0000CD0032803D10521F448FFF7DDFF7CBDC7
:1021D00000231A464FF4607130460CE000231A4683
:1021E0004FF400613046CDE90045FEF7C0FF002303
:1021F000EB481A46C021CDE90045FEF7B8FF7CBD8B
:102200001CB50522E74C032140B101280CD003285E
:1022100003D10521E448FFF7B7FF1CBDCDE900124B
:1022200000231A46642105E0CDE9001200231A4676
:102230004FF4E0412046FEF79AFF1CBD1CB5062274
:10224000032140B101280DD0032803D10621D7482E
:10225000FFF79AFF1CBDCDE9001200231A46382172
:10226000D34806E0CDE9001200231A464FF4E051AE
:10227000D048FEF77CFF1CBD7CB50525CC4E032461
:1022800050B1012816D002281AD0032803D1052105
:10229000C948FFF779FF7CBD00231A464FF48061DF
:1022A0003046CDE90045FEF762FF00231A460C21B7
:1022B000C04809E000231A464FF46041304603E06D
:1022C0000023BE481A460D21CDE90045FEF74FFF19
:1022D0007CBD1CB50522032140B101280DD0032887
:1022E00003D10521B648FFF74FFF1CBDCDE9001211
:1022F00000231A46E021B34805E0CDE9001200238F
:102300001A463821AA48FEF732FF1CBD2DE9FF4FBF
:1023100085B00446DDE912BA994616466846FEF7CE
:1023200046FDA748A84F0025844208D1386840F4EC
:10233000805038600698FFF7CCFFADF804509E48F7
:10234000DFF884828442A8F104080AD1D8F800108A
:1023500041F48041C8F800100698FFF78DFFADF8F2
:102360000450924884420AD1D8F8001041F4004148
:10237000C8F800100698FFF761FFADF804508A48CE
:10238000844208D1386840F4005038600698FFF75E
:1023900037FFADF804508148844208D1386840F4D2
:1023A000801038600698FFF705FFADF804507848B4
:1023B000844208D1386840F4001038600698FFF76E
:1023C000E4FEADF80450ADF80C90ADF800504FF4B9
:1023D0000070ADF80EA0ADF802B0ADF80A0046B13D
:1023E0000121012E08D00220022E08D0032E0BD08E
:1023F0000EE0ADF8065004E0ADF8065006E0ADF88A
:102400000600ADF8085003E0ADF80600ADF808107E
:10241000208820F04000208069462046FEF748FCD6
:10242000208840F04000208009B0BDE8F08F2DE901
:10243000FC410446624800250F464FF482768442F0
:1024400005D1CDE9006520230022FFF75FFF5A4840
:10245000844206D1CDE90065202300223946FFF7EA
:1024600055FF5248844206D1CDE900652023002261
:102470003946FFF74BFF4C48844206D1CDE9006551
:10248000202300223946FFF741FF4448844206D109
:10249000CDE90065202300223946FFF737FF3C488D
:1024A000844206D1CDE90065202300223946FFF79A
:1024B0002DFFBDE8FC812DE9FC4104464048002584
:1024C000174688464FF48276844204D1CDE90065F0
:1024D0002023FFF71BFF3848844206D1CDE9006571
:1024E00020233A464146FFF711FF3048844206D187
:1024F000CDE9006520233A464146FFF707FF2A4809
:10250000844206D1CDE9006520233A464146FFF7D3
:10251000FDFE2248844206D1CDE9006520233A46DB
:102520004146FFF7F3FE1A488442C2D1CDE9006567
:1025300020233A464146FFF7E9FEBAE72DE9FC477A
:102540000446DDE90A651E481F46904689468442D6
:1025500005D1CDE9006513463A46FFF7D7FE164888
:10256000844206D1CDE9006543463A464946FFF725
:10257000CDFE0E48844206D1CDE9006543463A4679
:102580004946FFF7C3FE0848844225D143461DE073
:102590000054014000180240001402400050014065
:1025A000001C02400010024000340140003C00408A
:1025B00000040240000802400038004000200240B1
:1025C000003001400000024044380240CDE900657F
:1025D0003A464946FFF79AFE7748844206D1CDE94C
:1025E000006543463A464946FFF790FE73488442E9
:1025F00006D1CDE9006543463A464946FFF786FED7
:10260000BDE8FC877FB50D00044620D06846FDF785
:1026100017FF6B48844208D06A48844205D0664858
:10262000844202D06548844201D1039900E00299B6
:1026300000200124421C04FA02F3B1FBF3F3AB4285
:1026400002D8C00004B070BDD0B20828F2D3382040
:10265000F8E702880388C2F3C02223F04003038016
:102660000129018808D021F400610180018841F02E
:10267000400101801046704741F40061F5E730B534
:102680000488640614D50489A407FCD004892406B0
:10269000F9D400240AE00D5D85810589AD07FCD0E1
:1026A00005892D06F9D485891555641C9C42F2D301
:1026B00030BD10B503885B0613D503899B07FCD09A
:1026C00003891B06F9D4002309E0CC5C84810489CA
:1026D000A407FCD004892406F9D484895B1C9342A6
:1026E000F3D310BD30B50488640613D50489A4075C
:1026F000FCD004892406F9D4002409E082810589EC
:10270000AD07FCD005892D06F9D485890D55641CCB
:102710009C42F3D330BD30B50488640616D50489D5
:10272000A407FCD004892406F9D400240CE031F875
:10273000145085810589AD07FCD005892D06F9D493
:10274000858922F81450641C9C42F0D330BD10B52A
:1027500003885B0614D503899B07FCD003891B06FD
:10276000F9D400230AE031F8134084810489A407D6
:10277000FCD004892406F9D484895B1C9342F2D3EB
:1027800010BD30B50488640614D50489A407FCD0B4
:1027900004892406F9D400240AE082810589AD0762
:1027A000FCD005892D06F9D4858921F81450641CC4
:1027B0009C42F2D330BD0000005001400054014063
:1027C000003001400034014008B500938B180244EA
:1027D0009BB292B2FFF749F908BD7CB5FEF7AEFF98
:1027E0000020FFF707F81F2400214FF4A073F02208
:1027F00008460094FFF739F900261423F0223146E9
:1028000030460096FFF731F94FF6FF75CDE90056D7
:102810000021F94BF9A20846FFF75FF8CDE9005413
:10282000FB4BFCA21E210520FFF757F82B463C224C
:102830002D210520FFF7C8FFCDE90054F44BF7A286
:102840006E210520FFF749F8CDE90054F04BF54A19
:102850007D210520FFF741F84AF25420CDE900041C
:10286000F04AEB4B921D8C210520FFF736F8ED4A1C
:10287000CDE90064E64B0E329B210520FFF72DF8D1
:102880007CBD08B54FF6FF7000904FF4A073C822CE
:1028900015214720FFF7E9F808BD3C222D214FF60E
:1028A000FF73052090E7032810D803290ED801EB09
:1028B000810303EBC10100EB8003313103EBC00066
:1028C0000B30134689B280B20C227DE7704710B5F9
:1028D0000446FFF7E2FF14B3012C34D0032C3DD0A3
:1028E000022C50D0052C61D0062C75D0042C7ED142
:1028F0004AF25424224600210220FFF7D4FF224648
:1029000001210220FFF7CFFF022122460846FFF7F0
:10291000CAFF012122460320BDE81040C3E740F270
:10292000FF74224600210120FFF7BDFF012122464E
:102930000846FFF7B8FF224602210120FFF7B3FF48
:102940002246032130E04FF6E0740121224608467A
:10295000FFF7A9FF01212246022009E04FF6E434E7
:10296000012122460846FFF79EFF224600213CE057
:10297000FFF799FF224602210120FFF794FF022171
:1029800022460846C8E71F2200210220FFF78BFFDE
:102990001F2201210220FFF786FF02211F22084685
:1029A000FFF781FF1F2213E00120B5E74FF47844C1
:1029B000224601210320FFF776FF22460121022053
:1029C000FFF771FF022122460846FFF76CFF2246FF
:1029D0000221E9E700E00AE04FF4FC64224601210D
:1029E0000020FFF760FF224601210120C0E710BD53
:1029F000092810D816290ED86FF00C03594300EBA4
:102A0000800303EBC000473001F23311134689B253
:102A100080B20C22D8E67047024683A1814800F0BC
:102A200057BA1CB51F24872346227D210520009418
:102A3000FFF71BF84FF6FF70CDE90004744B794A9D
:102A40007D210520FEF749FF1CBD1CB51F249623E0
:102A500046228C2105200094FFF707F80020CDE9DD
:102A600000046B4B6F4A8C210520FEF736FF1CBD1E
:102A700008B5FDF70FFC0120FDF72EFC0120FDF746
:102A8000B8FCFDF746FC0128FBD13120FDF72AFCFC
:102A90000128FAD10220FDF7ACFC042003460146D0
:102AA0000090C8220005FDF764FC0120FDF771FCD1
:102AB0000020FDF7ACFC4FF48050FDF7B0FC002087
:102AC000FDF7B5FC3920FDF70DFC0128FAD108BD52
:102AD0002DE9FC4101210846FDF747FD6846FDF759
:102AE000C3FE03258DF8055000243C208DF80440DA
:102AF0004E4F00908DF8064002268DF8076069461B
:102B00003846FDF775FE6846FDF7AEFE8DF80550B8
:102B100001208DF8044000908DF806408DF8076084
:102B200069463846FDF764FEBDE8FC813D4C08B5BA
:102B30000C3C00252570A571E57125816581FFF7A5
:102B400097FFFFF7C5FFFEF763FAFEF71EFAFFF7E0
:102B500044FEDFF8DCA0354EDFF8D88016274AF2B5
:102B6000542B4FF4FA79DAF8001081F4C041CAF816
:102B70000010FFF786FE01213046FDF78AFE6071E6
:102B800004213046FDF785FEA07010213046FDF788
:102B900080FE607008213046FDF77BFEE07020214A
:102BA0003046FDF776FE2071A07850B9608938B1C3
:102BB000401E80B26081FFF72FFFFFF732FF00E079
:102BC0006781607858B96089162807D2401C80B2A6
:102BD0006081FFF721FFFFF724FF00E06581E078C7
:102BE00048B9208940B3401E80B22081FFF714FF0E
:102BF000FFF72BFF22E021E0340000204B4154413D
:102C0000525A594E4120474F52534B410000000049
:102C10002C0000204E4558540000000053434F52F2
:102C200045000000D800002025750000000002408B
:102C30001418024014000020FFE72781207958B9BA
:102C40002089092807D2401C80B22081FFF7E4FECA
:102C5000FFF7FBFE00E02581E078012821D04FF44A
:102C6000FC6208210846FFF7C3FE5A4661892089A5
:102C7000FFF7BEFE0022E179A079FFF7B9FEE07907
:102C800040F21D52C0F1160081B2A079C0F10900D6
:102C900080B2FFF7ADFEA079092805D2401CA071D3
:102CA00006E04FF6E432DCE7A571E079401CE07104
:102CB000E079162800D1E571D8F800204946404651
:102CC00000920268009BD21A8A42FAD34BE77047FF
:102CD000FEE7FEE7FEE7FEE7704770477047704784
:102CE00010B5FEF745F910BD1CB500215B4A0091F7
:102CF0000191106840F4803010604FF4A0431068D8
:102D000000F4003001900098401C0090019810B928
:102D100000989842F3D11068800342D501200190B9
:102D20004E484030016841F0805101604C490868CC
:102D300040F4404008604948083003680360036875
:102D400043F400430360036843F4A0530360041F8B
:102D5000444B2360136843F08073136013689B0136
:102D6000FCD50A6842F480320A604A68D203FCD576
:102D70000A6842F400320A604A689203FCD53A4A73
:102D800040F205711160016821F0030101600168E2
:102D900041F0020101600168C1F381010229FAD109
:102DA0001CBD01911CBD314810B5016841F4700192
:102DB00001602A48016841F001010160274A0021B1
:102DC0000832116002682A4B1A400260031D294A2A
:102DD0001A60026822F48022026020480C300160F0
:102DE000FFF782FF21494FF000608039086010BD75
:102DF00070B51A4D083528681F4B204910F00C009B
:102E000004D05E10042803D0082803D00B601BE018
:102E10000E6019E0114A121D1068C0F3805410684A
:102E200000F03F0014B1B6FBF0F001E0B3FBF0F0AE
:102E300013681268C3F388135843C2F30142521C4B
:102E40005200B0FBF2F0086028680C4AC0F303108F
:102E5000121D105C0A68C2400A6070BD0038024052
:102E600000700040085A4007003C024088ED00E036
:102E7000FFFFF6FE103000240024F400F0000020D4
:102E800030B50B46014600202022012409E021FA3A
:102E900002F59D4205D303FA02F5491B04FA02F537
:102EA0002844151EA2F10102F1DC30BD064C074D8D
:102EB00006E0E06840F0010394E80700984710340A
:102EC000AC42F6D3FDF776F9544500087445000886
:102ED0000FB4084B10B504A902AA039800F01CF81F
:102EE000044602A9002000F0C1F8204610BC5DF89D
:102EF00014FB00006D30000802E008C8121F08C172
:102F0000002AFAD170477047002001E001C1121F6A
:102F1000002AFBD1704700002DE9FF4F89B09B4686
:102F20000446002506E025280BD05A460B99904709
:102F3000641C6D1C20780028F5D10DB02846BDE832
:102F4000F08F0027B8460122474900E0074314F8F4
:102F5000013F203B02FA03F00842F7D120782E28E7
:102F600019D114F8010F47F004072A280ED06FF08A
:102F70002F022078A0F1300109290CD808EB880134
:102F800002EB410100EB0108641CF2E70A98641CA3
:102F900050F8048B0A9020780028CED0642808D0FE
:102FA000692806D075281ED05A460B9990476D1C8B
:102FB00058E00A994FF00A0901C90A91002802DA7B
:102FC00040422D2102E0390504D52B218DF8201037
:102FD000012103E0F90704D02021F7E78A4608AE73
:102FE0000DE00021FAE70A994FF00A0901C90A9198
:102FF000F7E74946FFF744FF303106F8011D002886
:10300000F7D1ADEB060000F12009780701D44FF0AD
:103010000108C84502DDA8EB090000E00020804659
:10302000002706E008A85A46C05D0B9990476D1C22
:103030007F1C5745F6DB04E030205A460B99904739
:103040006D1CB8F10001A8F10108F5DC05E016F8E7
:10305000010B5A460B9990476D1CB9F10001A9F17B
:103060000109F4DC641C65E7092801000A68531CA7
:103070000B6010707047000610160B0C0D0E0F1031
:10308000112F38393A3B3C4445460000000000000F
:103090000000000000000000000000000000001020
:1030A00000100010001000100010000000100000C0
:1030B0000000002800280028000000000000000098
:1030C00000000000000000240024007C00240048D0
:1030D000007C004800480000000000380054005008
:1030E0000038001400540054003800100000002084
:1030F000005400580030002800540014000800005C
:10310000000000100028002800100034004800488B
:10311000003400000000001000100010000000004B
:103120000000000000000000000000080010002067
:1031300000200020002000200020001000080020B7
:10314000001000080008000800080008000800102F
:1031500000200010003800100028000000000000CF
:103160000000000000000000000000100010007CC3
:10317000001000100000000000000000000000002F
:10318000000000000000000000100010001000000F
:1031900000000000000000000038000000000000F7
:1031A000000000000000000000000000000000001F
:1031B00000100000000000080008001000100010BF
:1031C00000100020002000000000003800440044EF
:1031D0000054004400440044003800000000001087
:1031E000003000500010001000100010001000000F
:1031F00000000038004400440004000800100020D3
:10320000007C0000000000380044000400180004A6
:1032100000040044003800000000000800180028E6
:1032200000280048007C0008000800000000007C26
:103230000040004000780004000400440038000012
:10324000000000380044004000780044004400447E
:10325000003800000000007C00040008001000108E
:10326000002000200020000000000038004400443E
:1032700000380044004400440038000000000038DA
:10328000004400440044003C0004004400380000B6
:10329000000000000000001000000000000000001E
:1032A00000100000000000000000000000100000FE
:1032B0000000000000100010001000000000000CD2
:1032C000003000400030000C000000000000000052
:1032D00000000000007C0000007C000000000000F6
:1032E00000000000000000600018000400180060EA
:1032F0000000000000000038004400040008001036
:103300000010000000100000000000380044004CD5
:103310000054005C00400040003800000000001035
:103320000028002800280028007C004400440000F9
:103330000000007800440044007800440044004449
:1033400000780000000000380044004000400040C9
:1033500000400044003800000000007000480044B5
:103360000044004400440048007000000000007C5D
:1033700000400040007C004000400040007C000015
:103380000000007C00400040007800400040004009
:103390000040000000000038004400400040005C95
:1033A0000044004400380000000000440044004491
:1033B000007C004400440044004400000000003849
:1033C0000010001000100010001000100038000065
:1033D0000000000400040004000400040004004491
:1033E0000038000000000044004800500060005019
:1033F0000048004800440000000000400040004039
:103400000040004000400040007C000000000044FC
:10341000006C006C00540044004400440044000070
:10342000000000440064006400540054004C004C50
:103430000044000000000038004400440044004400
:1034400000440044003800000000007800440044BC
:1034500000440078004000400040000000000038B8
:103460000044004400440044004400540038000478
:103470000000007800440044004400780048004800
:103480000044000000000038004400400030000804
:1034900000040044003800000000007C0010001010
:1034A0000010001000100010001000000000004488
:1034B000004400440044004400440044003800003C
:1034C00000000044004400440028002800280010A8
:1034D0000010000000000044004400540054005458
:1034E000006C00280028000000000044002800288C
:1034F00000100010002800280044000000000044D4
:1035000000440028002800100010001000100000E7
:103510000000007C000400080010001000200040A3
:10352000007C0000000000180010001000100010C7
:1035300000100010001000100018002000200010E3
:10354000001000100010000800080000000000300B
:1035500000100010001000100010001000100010EB
:103560000030001000280028004400000000000087
:10357000000000000000000000000000000000004B
:10358000000000000000000000FE0020001000000D
:10359000000000000000000000000000000000002B
:1035A000000000380044003C0044004C003400009F
:1035B00000000040004000580064004400440064E3
:1035C00000580000000000000000003800440040E7
:1035D00000400044003800000000000400040034F3
:1035E000004C00440044004C003400000000000087
:1035F000000000380044007C004000440038000017
:103600000000000C0010007C0010001000100010E2
:10361000001000000000000000000034004C0044D6
:103620000044004C00340004007800400040005882
:103630000064004400440044004400000000001006
:1036400000000070001000100010001000100000BA
:1036500000000010000000700010001000100010AA
:103660000010001000E000400040004800500060E2
:1036700000500048004400000000007000100010DE
:1036800000100010001000100010000000000000EA
:10369000000000780054005400540054005400000E
:1036A0000000000000000058006400440044004492
:1036B0000044000000000000000000380044004406
:1036C00000440044003800000000000000000058E2
:1036D00000640044004400640058004000400000C2
:1036E00000000034004C00440044004C003400044E
:1036F000000400000000005800640040004000404A
:1037000000400000000000000000003800440030CD
:10371000000800440038000000000020002000786D
:103720000020002000200020001800000000000001
:1037300000000044004400440044004C00340000F9
:103740000000000000000044004400280028002879
:10375000001000000000000000000054005400545D
:10376000006C002800280000000000000000004459
:103770000028001000100028004400000000000095
:103780000000004400440028002800100010001031
:10379000006000000000007C0008001000200040D5
:1037A000007C000000000018001000100010002035
:1037B0000020001000100010001800100010001071
:1037C0000010001000100010001000100010003059
:1037D0000010001000100008000800100010001079
:1037E00000300000000000000074004C00000000E9
:1037F00000000000000000000000000000000000C9
:1038000000000000000000000000000000000000B8
:10381000000000000000000000000000000C000C90
:10382000000C000C000C000C000C000C000C000C38
:10383000000C0000000C000C000000000000000064
:10384000001B001B001B001B001B000000000000F1
:103850000000000000000000000000000000000068
:10386000000000008019801980198019C07FC07F76
:1038700080190033C07FC07F003300330033003332
:103880000000000000000000001E003F8075806501
:103890000074003C001E000780058065806580750F
:1038A000003F001E0004000400000000007000D86B
:1038B00040D8C0D880D900730006000C801BC036E9
:1038C000C066C046C0068003000000000000000083
:1038D000001E003F003300330033001E000CC03CCC
:1038E000C066806380618063C03E801C0000000071
:1038F00000000000000C000C000C000C000C00008C
:1039000000000000000000000000000000000000B7
:103910000000000000008000000100030006000617
:103920000004000C000C000C000C000C000C000447
:1039300000060006000300018000002000100018AF
:10394000000C000C0004000600060006000600063D
:1039500000060004000C000C0018001000200000FD
:10396000000C002D003F001E00330000000000008E
:103970000000000000000000000000000000000047
:103980000000000000000000000C000C000C000C07
:10399000C0FFC0FF000C000C000C000C0000000079
:1039A0000000000000000000000000000000000017
:1039B0000000000000000000000000000000000007
:1039C000000C000C000400040008000000000000CF
:1039D000000000000000000000000000001E001EAB
:1039E00000000000000000000000000000000000D7
:1039F00000000000000000000000000000000000C7
:103A00000000000000000000000C000C000000009E
:103A1000000000000003000300030006000600068B
:103A20000006000C000C000C000C00180018001818
:103A30000000000000000000001E003F0033806115
:103A400080618061806D806D806180618061003304
:103A5000003F001E00000000000000000006000EF5
:103A6000001E0036002600060006000600060006BE
:103A7000000600060006000600000000000000002E
:103A8000001E003F8073806180618001000300069A
:103A9000000C001800300060807F807F0000000074
:103AA00000000000001C003E006300630003000EE5
:103AB000000E00038001800180618073003F001EC2
:103AC00000000000000000000006000E000E001EB6
:103AD000001E0016003600360066807F807F0006DC
:103AE000000600060000000000000000007F007FCC
:103AF000006000600060006E007F806380018001D4
:103B000080618073003F001E000000000000000084
:103B1000001E003F803380610060006E007F807374
:103B20008061806180618033003F001E00000000E2
:103B300000000000807F807F8001000300030006FA
:103B40000006000C000C000C0008001800180018FB
:103B50000000000000000000001E003F8063806144
:103B600080610021001E003F806180618061806172
:103B7000003F001E0000000000000000001E003F8B
:103B800000738061806180618073803F801D80014F
:103B900080610073003F001E000000000000000074
:103BA0000000000000000000000C000C00000000FD
:103BB0000000000000000000000C000C00000000ED
:103BC0000000000000000000000000000000000CE9
:103BD000000C00000000000000000000000C000CC1
:103BE0000004000400080000000000000000800045
:103BF0008003000E003800600038000E8003800053
:103C000000000000000000000000000000000000B4
:103C100000000000807F807F00000000807F807FA8
:103C20000000000000000000000000000000000094
:103C300000000000000000400070001C0007800130
:103C40000007001C007000400000000000000000A1
:103C500000000000001F803FC071C060C000C001B4
:103C600080030007000E000C000C0000000C000C8C
:103C70000000000000000000001E003F8031807145
:103C80008063806F806D806D806F80670060003220
:103C9000003E001C0000000000000000000E000EAE
:103CA000001B001B001B001B80318031803F803FC8
:103CB0008031C060C060C0600000000000000000F3
:103CC000007C007E0063006300630063007E007E72
:103CD0000063806180618063007F007E00000000DF
:103CE00000000000001E003F803180610060006025
:103CF000006000600060006080618031003F001E55
:103D00000000000000000000007C007F0063806372
:103D10008061806180618061806180610063006397
:103D2000007E007C0000000000000000807F807F9B
:103D30000060006000600060007F007F0060006045
:103D400000600060807F807F0000000000000000B5
:103D5000807F807F0060006000600060007F007FE7
:103D60000060006000600060006000600000000013
:103D700000000000001E003F803180610060006094
:103D8000006080638063806180618031803F001EBD
:103D9000000000000000000080618061806180619F
:103DA00080618061807F807F8061806180618061CF
:103DB000806180610000000000000000003F003FC3
:103DC000000C000C000C000C000C000C000C000C93
:103DD000000C000C003F003F00000000000000004D
:103DE00080018001800180018001800180018001CB
:103DF0008001806180618073003F001E0000000030
:103E000000000000C0608061006300660066006C16
:103E10000078007C00660066006380618061C0609D
:103E20000000000000000000006000600060006012
:103E30000060006000600060006000600060006082
:103E4000807F807F0000000000000000C071C07112
:103E5000C07BC07AC06AC06AC06EC064C060C06007
:103E6000C060C060C060C0600000000000000000D2
:103E700080718071807980798079806D806D806DAE
:103E800080658067806780678063806300000000D2
:103E900000000000001E003F0033806180618061EF
:103EA000806180618061806180610033003F001E1D
:103EB0000000000000000000007E007F8063806141
:103EC000806180618063007F007E00600060006030
:103ED000006000600000000000000000001E003FC5
:103EE0000033806180618061806180618061806574
:103EF00080670033803F401E00000000000000008B
:103F0000007E007F8063806180618063007F007E2F
:103F100000660063006380618061C0600000000093
:103F200000000000000E001F80318031003000389A
:103F3000001E00078003806180618031003F001E09
:103F40000000000000000000C0FFC0FF000C000CDB
:103F5000000C000C000C000C000C000C000C000C01
:103F6000000C000C00000000000000008061806177
:103F70008061806180618061806180618061806139
:103F800080618073003F001E000000000000000000
:103F9000C060C060C060803180318031001B001B78
:103FA000001B001B000E000E000E000400000000AD
:103FB00000000000C0C0C0C0C0C0C0C0C0C0C0CCF5
:103FC000804C804C805E8052805280738061806122
:103FD0000000000000000000C0C08060806100336D
:103FE000003B001E000C000C001E001F003B8071F7
:103FF0008061C0C00000000000000000C0C08061FF
:10400000806100330033001E001E000C000C000C09
:10401000000C000C000C000C000000000000000070
:10402000803F803F8001000300030006000C000C6D
:104030000018001800300060807F807F00000000C2
:104040000000000F000F000C000C000C000C000C16
:10405000000C000C000C000C000C000C000C000C00
:10406000000C000F000F0000001800180018000CD2
:10407000000C000C000C0006000600060006000301
:1040800000030003000000000000001E001E0006E8
:1040900000060006000600060006000600060006F0
:1040A00000060006000600060006001E001E0000B6
:1040B000000C000C001E0012003300338061806190
:1040C00000000000000000000000000000000000F0
:1040D00000000000000000000000000000000000E0
:1040E00000000000000000000000000000000000D0
:1040F0000000E0FF0000000000380018000C000085
:1041000000000000000000000000000000000000AF
:10411000000000000000000000000000000000009F
:1041200000000000001F803F80618001801F803FF1
:1041300080618063807FC0380000000000000000C4
:104140000060006000600060006E007F807380612E
:104150008061806180618073007F006E00000000DC
:10416000000000000000000000000000001E003FF2
:10417000807380610060006080618073003F001E7A
:10418000000000000000000080018001800180012B
:10419000801D803F80738061806180618061807359
:1041A000803F801D000000000000000000000000B3
:1041B00000000000001E003F00738061807F807F50
:1041C00000608071003F001E000000000000000041
:1041D000C007C00F000C000C807F807F000C000C1B
:1041E000000C000C000C000C000C000C0000000087
:1041F00000000000000000000000801D803F807370
:1042000080618061806180618073803F801D80015A
:104210008063007F003E000000600060006000607E
:10422000006F807F807180618061806180618061CA
:1042300080618061000000000000000000060006B0
:1042400000000000003E003E0006000600060006DA
:104250000006000600060006000000000000000640
:10426000000600000000003E003E000600060006BA
:104270000006000600060006000600060046007E56
:10428000003C00000060006000600060806100632E
:104290000066006C007C0076006300638061C06093
:1042A0000000000000000000003E003E0006000686
:1042B00000060006000600060006000600060006CE
:1042C00000060006000000000000000000000000E2
:1042D0000000000080DDC0FFC0CEC0CCC0CCC0CC90
:1042E000C0CCC0CCC0CCC0CC00000000000000009E
:1042F0000000000000000000006F807F807180617E
:104300008061806180618061806180610000000067
:10431000000000000000000000000000001E003F40
:10432000807380618061806180618073003F001EC6
:104330000000000000000000000000000000006E0F
:10434000007F807380618061806180618073007F05
:10435000006E00600060006000600000000000006F
:104360000000801D803F807380618061806180617A
:104370008073803F801D80018001800180010000EA
:1043800000000000000000000067803F003900309E
:1043900000300030003000300030003000000000FD
:1043A000000000000000000000000000001E803F30
:1043B00080610060007F803F80018061007F001E7F
:1043C00000000000000000000000000800180018B5
:1043D000007F007F0018001800180018001800184F
:1043E000801F800F0000000000000000000000009F
:1043F0000000000080618061806180618061806177
:1044000080618063807F803D00000000000000002C
:104410000000000000000000C06080318031803169
:10442000001B001B001B000E000E00060000000019
:1044300000000000000000000000000080DD80DDC2
:1044400080DD0055005500550077007700220022DE
:10445000000000000000000000000000000000005C
:10446000806100330033001E000C000C001E00337E
:104470000033806100000000000000000000000028
:10448000000080618061803100330033001B001B1D
:10449000001B000E000E000E001C007C00700000CF
:1044A0000000000000000000C07FC07F800100030A
:1044B0000006000C00180030C07FC07F0000000024
:1044C00000008003800700060006000600060006C4
:1044D000000E001C001C000E000600060006000670
:1044E000000680078003000600060006000600069E
:1044F000000600060006000600060006000600068C
:10450000000600060006000600060038003C000C0D
:10451000000C000C000C000C000E00070007000E41
:10452000000C000C000C000C000C003C00380000DB
:104530000000000000000000000000008038807FC4
:104540000047000000000000000000000000000024
:104550000000000074450008000000200401000075
:10456000F82E0008784600080401002054040000DA
:10457000082F0008000000000102030401020304E8
:10458000060708090000000000000000000000000D
:10459000000000000000000000000000000000001B
:1045A000070A00008A3000080B120000F6370008E6
:1045B000000000065864024000000006406402400B
:1045C00000000000000000000000000070600240D9
:1045D00000000000586002400000000000000000E1
:1045E00000000000886002400000000010600240EF
:1045F00000000000000000000000000828640240E5
:1046000000000008106402400000000000000000EC
:104610000000000EA06402400000000E886402400A
:10462000000000000000000000000002886402405A
:1046300000000002A0640240000000000000000032
:104640000000000000000000000000003939393986
:104650003900303030783030300030303078303021
:10466000300000000095BA0A0000000000000000C1
:0846700001020304060708091A
:04000005080001AD41
:00000001FF
